:020000021000EC
:1000B400930700006388070017250000130505C196
:1000C4006F10006B67800000974100009381C19915
:1000D400130500006304050073107501138581D6B0
:1000E400138641093306A64093050000EF0000295A
:1000F400171500001305056863080500172500009F
:100104001305C5BCEF10C066EF00C037032501001E
:100114009305410013162500130646003306B60066
:10012400EF00C0216F004033938781D5138781D5B9
:10013400630AF7009307000063860700138581D5DF
:100144006780070067800000938781D5938581D5F8
:10015400B385F54093D7254093D5F501B385F500D4
:1001640093D51540638A0500930700006386070052
:10017400138581D56780070067800000130101FFA4
:100184002324810083C781D82326110063940702A6
:10019400EFF09FF993070000638A070037250100F9
:1001A4001305852597000000E70000009307100061
:1001B4002384F1D88320C1000324810013010101A9
:1001C400678000009307000063860702372501005B
:1001D400130101FF9385C1D813058525232611003A
:1001E40097000000E70000008320C1001301010113
:1001F4006FF09FF56FF05FF5130101FF23261100E7
:100204002324810013040101B7D70040938787009A
:1002140003A70700B7D70040938787001367170029
:1002240023A0E700B7D700409387070103A707007F
:10023400B7D70040938707011367170023A0E7008F
:10024400130000008320C100032481001301010175
:1002540067800000130101FE232E1100232C81006E
:100264001304010293070500A307F4FEB7D7004067
:100274000347F4FE23A0E700130000008320C1011C
:10028400032481011301010267800000130101FFAF
:10029400232611002324810013040101B7D7004051
:1002A4009387470183A7070093F71700638E070618
:1002B400B7D700409387470103A70700B7D700408B
:1002C400938747011377E7FF23A0E70083A781D62D
:1002D400372701001307C724B307F70083C70700B4
:1002E4006386070283A781D69386170023A4D1D6F9
:1002F400372701001307C724B307F70083C7070094
:1003040013850700EFF01FF56F000002B7D7004018
:100314009387070103A70700B7D700409387070116
:100324001377E7FF23A0E700130000008320C10038
:10033400032481001301010167800000130101FF00
:10034400232611002324810013040101EFF0DFEAC6
:1003540083A781D69386170023A4D1D6372701001B
:100364001307C724B307F70083C7070013850700E3
:10037400EFF05FEE730050106FF0DFFF1303F00037
:1003840013070500637EC3029377F7006390070A9F
:1003940063920508937606FF1376F600B386E600AB
:1003A4002320B7002322B7002324B7002326B70055
:1003B40013070701E366D7FE631406006780000095
:1003C400B306C3409396260097020000B3865600F6
:1003D4006780C6002307B700A306B7002306B7004B
:1003E400A305B7002305B700A304B7002304B7008F
:1003F400A303B7002303B700A302B7002302B70087
:10040400A301B7002301B700A300B7002300B7007E
:100414006780000093F5F50F93968500B3E5D5004A
:1004240093960501B3E5D5006FF0DFF693962700A8
:1004340097020000B386560093820000E78006FA14
:1004440093800200938707FF3307F7403306F600D3
:10045400E378C3F66FF0DFF3130101FF93050000A7
:10046400232481002326110013040500EF104015F6
:1004740083A7C1D663840700E7800700130504003F
:10048400EF109044130101FF232481002320210154
:1004940097370000938787DC17340000130404DCCB
:1004A4002326110023229100338987406380870229
:1004B40013592940930400008327040093841400F3
:1004C40013044400E7800700E3E824FF97370000A3
:1004D400938747D917340000130444D833898740DD
:1004E40013592940638E8700930400008327040076
:1004F4009384140013044400E7800700E3E824FF16
:100504008320C100032481008324410003290100C6
:1005140013010101678000001305000067800000DB
:1005240017360000130646D4970500009385453519
:10053400138581C16F10006E83254500130101FFEF
:100544002324810023261100938741DA1304050034
:100554006384F500EF008032832584009387C1E033
:100564006386F50013050400EF0040318325C400C1
:10057400938741E7638CF50013050400032481008D
:100584008320C100130101016F00402F8320C100AB
:10059400032481001301010167800000130500009A
:1005A40067800000130101FE232E1100232C81001B
:1005B400232A9100138441DA2328210123263101BF
:1005C40023244101170700001307C7F593074000D0
:1005D4001306800093050000138501E023A6E1D6ED
:1005E4002326F400232004002322040023240400EF
:1005F4002322040623280400232A0400232C0400B5
:10060400EFF0DFD7B7070100171A0000130ACA1763
:10061400971900009389891D17190000130989256A
:10062400971400009384442B93879700130680004B
:1006340093050000138581E6232AF406232044034E
:10064400232234032324240323269402232E840008
:100654002324040623260406232804062326040C44
:10066400232C0406232E040623200408EFF01FD1B4
:10067400B7070200938727011387C1E013068000A0
:1006840093050000138501ED23244409232634092E
:1006940023282409232A9408232EF40C2328040C49
:1006A400232A040C232C040C232A04122320040ED2
:1006B4002322040E2324040E2322E408EFF01FCC8B
:1006C400938741E72328440F232A340F232C240F34
:1006D400232E940E8320C1012326F40E03248101CA
:1006E40083244101032901018329C100032A8100D4
:1006F400130101026780000083A7C1D6130101FE24
:1007040023263101232E1100232C8100232A91005A
:1007140023282101930905006388070E1739000077
:10072400130989B49304F0FF832749000324890043
:100734009387F7FF63D807006F000008130484064B
:10074400638C97060317C4009387F7FFE31807FE2B
:10075400B707FFFF93871700232204062320040012
:10076400232404002322040023280400232A040051
:10077400232C04002326F4001306800093050000B4
:100784001305C405EFF09FBF23280402232A0402A3
:1007940023220404232404048320C1011305040038
:1007A4000324810183244101032901018329C10018
:1007B400130101026780000003240900630604009A
:1007C400130904006FF05FF69305C01A138509003E
:1007D400EF00001C13040500630C0502930740009E
:1007E4001305C500232004002322F4002324A400BD
:1007F4001306001A93050000EFF05FB82320890068
:10080400130904006FF05FF2EFF0DFD96FF01FF10E
:10081400232009009307C00023A0F9006FF0DFF73D
:1008240083274503638407006780000083A7C1D63C
:1008340017070000130787D0232AE502E39607FE73
:100844006FF05FD6678000006780000017360000F5
:10085400130686A197050000938545CC1305000077
:100864006F10403B17360000130606A097050000E2
:10087400938505D3130500006F10C039130101FFE0
:1008840023261100232021016388050223248100EB
:1008940023229100138405009304050063060500D8
:1008A40083274503638C070C8317C40063920702F4
:1008B40003248100832441008320C1001309000024
:1008C40013050900032901001301010167800000D9
:1008D4009305040013850400EF1040008327C4022D
:1008E40013090500638A07008325C40113850400E6
:1008F400E7800700634405068357C40093F707089D
:100904006396070683250403638C05009307040498
:100914006386F50013850400EF00901B232804026E
:10092400832544046388050013850400EF00501AEE
:1009340023220404EFF01FF123160400EFF0DFF08C
:100944008320C1000324810083244100130509008E
:100954000329010013010101678000008357C400CB
:100964001309F0FF93F70708E38E07F883250401C2
:1009740013850400EF00D0156FF0DFF8EFF05FEAA5
:100984006FF09FF29305050003A541D66FF01FEFAA
:10099400130101FD232021032326110223248102B4
:1009A40023229102232E31019387B500130760019E
:1009B40013090500636EF7069304000163EEB41E89
:1009C400EF00905393078001930520009389C18021
:1009D400B387F90003A44700138787FF6308E4443F
:1009E400832744008326C4000326840093F7C7FFAB
:1009F400B307F40003A747002326D60023A4C600A8
:100A0400136717001305090023A2E700EF00104F36
:100A14008320C1021305840003248102832441023C
:100A2400032901028329C101130101036780000026
:100A340093F487FF63C2071863E0B418EF00D04B48
:100A44009307701F63FE974E93D79400638A071829
:100A5400130740006364F74493D7640093859703B6
:100A640013888703139635009389C1803386C900A0
:100A740003244600130686FF630886021305F0006C
:100A84006F0040018326C40063500736630ED6000E
:100A9400138406008327440093F7C7FF33879740E6
:100AA400E352E5FE9305080003A4090193884181FC
:100AB400630C142B832744009306F00093F7C7FFBD
:100AC4003387974063C4E64823AA190123A8190170
:100AD400635807441307F01F03A549006360F73602
:100AE40013F787FF130787003387E900832607007E
:100AF40013D6570093071000B397C7003365F5006A
:100B0400930787FF2324D4002326F40023A2A900FB
:100B14002320870023A6860093D7254013061000C0
:100B24003316F6006366C50CB377A6006394070218
:100B34001316160093F5C5FFB377A60093854500F9
:100B4400639A070013161600B377A6009385450031
:100B5400E38A07FE1308F00013933500338369001A
:100B6400130503008327C500138E0500630AF534BB
:100B740003A747001384070083A7C7001377C7FFA1
:100B8400B3069740634AD834E3C206FE3307E40051
:100B940083264700032684001305090093E6160004
:100BA4002322D7002326F60023A4C700EF00103524
:100BB400130584006F0000019307C0002320F9008F
:100BC400130500008320C10203248102832441020F
:100BD400032901028329C101130101036780000075
:100BE40013060020930500041308F0036FF0DFE7F9
:100BF40003A48900232861018327440013FBC7FF52
:100C040063689B0033079B409307F00063CCE718AD
:100C140023229101938CC1D5232A510103A70C00EF
:100C240083AA81D7232C4101232671019307F0FF66
:100C3400330A6401B38A54016300F73EB717000016
:100C44009387F700B38AFA00B7F7FFFFB3FAFA0005
:100C540093850A0013050900EF00902A9307F0FF1B
:100C6400930B0500630CF54623248101636245114F
:100C7400138CC1ED83250C00B385BA002320BC007E
:100C8400138705006302AA4683A60C009307F0FFAE
:100C9400638AF646B3874B41B387E7002320FC0001
:100CA40093FC7B00638A0C38B38B9B41B71500001F
:100CB400938B8B0093858500B38A5B01B385954143
:100CC400B38555419395450113DA450193050A000F
:100CD40013050900EF00D0229307F0FF6304F546E3
:100CE40033057541B30A450103270C0023A4790198
:100CF40093E71A00B305EA0023A2FB002320BC00FB
:100D0400630E34039306F00063FE66350327440044
:100D140093074BFF93F787FF137717003367F700A9
:100D24002322E400130650003307F4002322C700F3
:100D34002324C70063E6F62C83A74B00138741D70F
:100D44008326070063F4B6002320B700138701D776
:100D54008326070063F4B6002320B700032C810028
:100D640013840B006F00C00103A549006FF0DFDAA4
:100D7400630C343503A48900032C810083274400C9
:100D840093F7C7FF3387974063E4972E9307F000E8
:100D940063D0E72E032A8101832A4101832BC100FA
:100DA400832C410093E714002322F400B30494003D
:100DB40023A49900136717001305090023A2E40074
:100DC400EF00D0138320C1021305840003248102A1
:100DD400032B010183244102032901028329C10158
:100DE400130101036780000003268400B307F400A5
:100DF40003A747002326D60023A4C60013671700C1
:100E04001305090023A2E700EF00500F8320C1025D
:100E1400130584000324810283244102032901026F
:100E24008329C101130101036780000003A4C700E3
:100E340093852500E38A87C66FF09FBA13D797007E
:100E44009306400063F2E6149306400163E2E6244D
:100E54001306C705131636009306B7053386C90073
:100E640003270600130686FF6318E6006F00401B85
:100E7400032787006308E6008326470093F6C6FF2E
:100E8400E3E8D7FE0326C7002326C4002324E40096
:100E940023248600232687006FF01FC81307400110
:100EA400637EF70E130740056362F72093D7C400EF
:100EB4009385F7061388E706139635006FF0DFBABB
:100EC400130E1E0093773E00130585006386070EFC
:100ED4008327C5006FF09FC90326840093E514009F
:100EE4002322B4002326F60023A4C700B3049400ED
:100EF40023AA990023A8990093E716003307E40076
:100F040023A6140123A4140123A2F4001305090049
:100F14002320D700EF00807E130584006FF09FCA62
:100F2400B307F40003A7470013050900136717006C
:100F340023A2E700EF00807C130584006FF09FC8B4
:100F440093D53400938784006FF05FA893E6140070
:100F54002322D400B304940023AA990023A899005F
:100F640093661700B307F40023A6140123A4140105
:100F740023A2D4001305090023A0E700EF000078A2
:100F8400130584006FF01FC413D76700130697037B
:100F940013163600930687036FF05FEC9385C7053D
:100FA4001388B705139635006FF01FAC83278300B1
:100FB4009385F5FF639E671C93F73500130383FF46
:100FC400E39607FE03A749009347F6FFB3F7E7004C
:100FD40023A2F90013161600E3ECC7C0E30A06C007
:100FE4003377F600631A0700131616003377F600FA
:100FF400130E4E00E30A07FE93050E006FF0DFB5F3
:101004009305840013050900EF00802C83250C0050
:1010140083AB89006FF05FD2938A0A016FF05FC3DC
:1010240093D6264093071000B397D7003365F50095
:1010340023A2A9006FF05FE5B3855B01B305B0405F
:101044009395450113DA450193050A001305090038
:10105400EF00006B9307F0FFE314F5C8130A0000D8
:101064006FF09FC8032C81009307100023A2FB009C
:1010740013050900EF008068032A8101832A4101D6
:10108400032B0101832BC100832C41006FF05FB35C
:101094009306400563ECE60613D7C7001306F7066C
:1010A400131636009306E7066FF05FDB130740154F
:1010B400636CF70693D7F400938587071388770743
:1010C400139635006FF05F9A138CC1ED03270C0063
:1010D4003387EA002320EC006FF01FBB03A48900D0
:1010E400832744006FF0DFC993174501E39E07B8D7
:1010F40083AB8900B3075B0193E7170023A2FB00CE
:101104006FF0DFC323A07C016FF09FB993064015F5
:1011140063E4E60413D7F7001306870713163600B3
:10112400930677076FF09FD3130740556364F70462
:1011340093D724019385D7071388C70713963500DF
:101144006FF09F92938C8CFFB38A9A01B38A7A4191
:10115400130A00006FF05FB99306405563E4E6029A
:1011640013D727011306D707131636009306C707AC
:101174006FF0DFCE1306803F9305F0071308E007F6
:101184006FF09F8E1306803F9306E0076FF01FCD2C
:1011940083A749006FF01FE4130101FE232C810093
:1011A400232A9100232821012326310123244101EC
:1011B40093890500232E110013090500172A000046
:1011C400130A4A0BEF00405383278A0037140000A8
:1011D4001304F4FE83A44700B717000093F4C4FF7C
:1011E40033848400330434411354C4001304F4FFDF
:1011F4001314C400634EF4009305000013050900A2
:10120400EF00005083278A00B38797006308F50234
:1012140013050900EF00804E8320C10103248101DE
:1012240083244101032901018329C100032A810088
:10123400130500001301010267800000B30580401C
:1012440013050900EF00C04B9307F0FF6308F50492
:101254001387C1ED83268A0083270700B384844063
:1012640093E4140013050900B387874023A2960072
:101274002320F700EF0080488320C101032481016B
:1012840083244101032901018329C100032A810028
:10129400130510001301010267800000930500008C
:1012A40013050900EF00C04503278A009306F000E8
:1012B400B307E540E3DEF6F483A6C1D593E7170050
:1012C4002322F7003305D54023AEA1EC6FF05FF481
:1012D40063860512130101FF232481002322910058
:1012E400138405009304050023261100EF00C04079
:1012F4008325C4FF130784FF17280000130888F709
:1013040093F7E5FF3306F70083264600032588009C
:1013140093F8150093F6C6FF630CC5182322D60074
:101324003305D6000325450013751500639C080892
:10133400032384FF97280000938848F43307674009
:1013440083258700B3876700638E15130323C700C3
:1013540023A665002324B3006300051A93E617004F
:101364002322D7002320F6009306F01F63E4F60A35
:1013740093F687FF9386860083254800B306D8003A
:1013840003A6060013D5570093071000B397A700D0
:10139400B3E7B700938586FF2324C7002326B7004D
:1013A4002322F80023A0E6002326E600032481007C
:1013B4008320C1001385040083244100130101012B
:1013C4006F00C033631E0502B387D700972800005F
:1013D4009388C8EA8326860013E51700B305F7004F
:1013E400638216170326C60023A6C6002324D6004C
:1013F4002322A70023A0F5006FF01FF767800000E9
:1014040093E51500232EB4FE2320F6009306F01F67
:10141400E3F0F6F693D69700130640006362D60E07
:1014240093D66700938596039395350013868603B8
:10143400B305B80083A60500938585FF6398D5009E
:101444006F00001283A686006388D50003A64600B9
:101454001376C6FFE3E8C7FE83A5C6002326B700BC
:101464002324D700032481008320C10023A4E500A2
:10147400138504008324410023A6E600130101011F
:101484006F00C0276310050A8325C6000326860063
:10149400B386F60093E716002326B60023A4C500FE
:1014A4002322F7003307D7002320D7006FF01FF063
:1014B400B386D70063900802832584FF3307B740BF
:1014C4008327C70003268700B386B6002326F600C9
:1014D40023A4C70013E6160083A701D62322C7005E
:1014E4002324E800E3E4F6EC83A581D71385040004
:1014F400EFF09FCA6FF09FEBB387D7006FF09FEDBB
:10150400130640016378D602130640056368D606C5
:1015140093D6C7009385F606939535001386E606A1
:101524006FF01FF193E617002322D7002320F60063
:101534006FF0DFE79385C605939535001386B605EE
:101544006FF01FEF232AE8002328E8002326170161
:10155400232417012322A70023A0F5006FF01FE521
:10156400032548001356264093071000B397C7007D
:10157400B3E7A7002322F8006FF05FEE13064015CF
:10158400636CD60093D6F700938586079395350050
:10159400138676076FF0DFE913064055636CD600B7
:1015A40093D627019385D607939535001386C607EE
:1015B4006FF01FE89305803F1306E0076FF05FE7C5
:1015C400130101FD232C4101138AC1D723202103D8
:1015D40003290A0023261102630C0906232E310174
:1015E400232A510123286101232671012324810226
:1015F4002322910223248101130B0500938B050000
:101604009309F0FF930A1000832449001384F4FF24
:101614006342040293942400B304990063840B048A
:1016240083A74410638077051304F4FF9384C4FFF5
:10163400E31834FF03248102832441028329C10176
:10164400832A4101032B0101832BC100032C810058
:101654008320C10203290102032A8101130101032A
:10166400678000008327490083A644009387F7FF1F
:10167400638A870623A204006386060283278918E7
:1016840033978A00032C4900B377F7006394070269
:10169400E78006000327490083270A00631E8703A7
:1016A400639C27031304F4FF9384C4FFE31834F703
:1016B4006FF05FF88327C91883A544083377F700D0
:1016C4006316070213050B00E78006000327490091
:1016D40083270A00E30687FDE38E07F413890700D6
:1016E4006FF09FF2232289006FF01FF91385050024
:1016F400E78006006FF01FFA678000006780000033
:10170400130101FF23248100130405001385050040
:1017140023A001D823261100EF0090269307F0FFA1
:10172400630AF5008320C100032481001301010131
:101734006780000023229100938401D883A70400CA
:10174400638E07008320C1002320F400032481005A
:101754008324410013010101678000008320C1003C
:1017640003248100832441001301010167800000E8
:1017740093050500930600001306000013050000FE
:101784006F00007F130101FF2324810013840500EF
:101794008395E50023261100EF001007634005023E
:1017A400832704058320C100B387A7002328F404FA
:1017B4000324810013010101678000008357C400E2
:1017C40037F7FFFF1307F7FFB3F7E7008320C100E4
:1017D4002316F40003248100130101016780000033
:1017E40013050000678000008397C500130101FE04
:1017F400232C8100232A910023282101232631014F
:10180400232E110013F70710138405001309060093
:1018140093890600930405006310070437F7FFFF5C
:101824001307F7FFB3F7E7008315E4002316F4006A
:10183400032481018320C101938609001306090052
:101844008329C10003290101138504008324410174
:10185400130101026F00405B8395E50093062000AD
:1018640013060000EF0000698317C4006FF01FFB2C
:10187400130101FF23248100138405008395E500EF
:1018840023261100EF0000671307F0FF8317C4003D
:101894006302E50237170000B3E7E7008320C100C5
:1018A4002328A4042316F400032481001301010156
:1018B4006780000037F7FFFF1307F7FFB3F7E70070
:1018C4008320C1002316F4000324810013010101C5
:1018D400678000008395E5006F00C05A0397C50038
:1018E400130101FE232C810023263101232E110034
:1018F400937787001384050093090500639007120A
:10190400B71700009387078083A64500B367F700E5
:101914002396F500635AD018032884026304080E42
:10192400232A91009316370183A4090023A00900F8
:1019340063C806188325C40113060000930610002B
:1019440013850900E70008009307F0FF130605005C
:10195400630AF51A8317C4000328840293F7470027
:10196400638E070003274400832704033306E640FD
:10197400638607008327C4033306F6408325C40126
:101984009306000013850900E70008001307F0FF21
:101994008317C400631AE51283A609001307D00154
:1019A4006360D71837074020130717003357D70051
:1019B40013771700630607160326040137F7FFFFA2
:1019C4001307F77F33F7E7002316E400232204000C
:1019D4002320C4001397370163540700638806105B
:1019E4008325040323A09900638A05109307040444
:1019F4006386F50013850900EFF09F8D8324410170
:101A0400232804028320C101032481018329C10006
:101A1400130500001301010267800000232821013F
:101A240003A90501630A0908232A910083A4050078
:101A34001377370023A02501B384244193070000C2
:101A44006314070083A745012324F400634890002E
:101A54006F0040063309A900635E900483274402A3
:101A64008325C40193860400130609001385090025
:101A7400E7800700B384A440E34EA0FC8317C400AE
:101A84000329010193E707048320C1012316F4000D
:101A940003248101832441018329C1001305F0FF3C
:101AA400130101026780000083A6C503E346D0E664
:101AB4006FF05FF583244101032901016FF09FF466
:101AC400032604056FF09FE98326040137F7FFFF1F
:101AD4001307F77F33F7E7002316E40023220400FB
:101AE4002320D40013973701E35C07EE8325040316
:101AF4002328A40423A09900E39A05EE832441013A
:101B04006FF05FF083A70900E38607E41307D001B1
:101B1400638CE700130760016388E7008317C40040
:101B240093E707046FF05FF623A099008324410133
:101B34006FF05FED130101FE232C8100232E1100B1
:101B4400130405006306050083274503638A07021F
:101B54008397C500639C07008320C101032481018E
:101B6400130500001301010267800000130504003F
:101B7400032481018320C101130101026FF01FD6E8
:101B84002326B100EFE0DFC98325C1006FF05FFCBD
:101B9400630005069305050003A541D66306050009
:101BA40083274503638C07008397C500639607006A
:101BB40013050000678000006FF05FD2130101FE7F
:101BC4002326B1002324A100232E1100EFE05FC5DA
:101BD4008325C100032581008397C500639607020E
:101BE4008320C10113050000130101026780000076
:101BF4001716000013064667970500009385C5F382
:101C0400138581C16F0000018320C101130101020A
:101C14006FF0DFCC130101FD23202103232E3101BA
:101C2400232C4101232A5101232861012326710118
:101C3400232611022324810223229102130B05007F
:101C4400938B0500930A0600130A00009309100001
:101C54001309F0FF83A44A0003A48A009384F4FFC9
:101C640063C804028357C40063FEF9008317E400C9
:101C74009305040013050B0063862701E7800B001E
:101C8400336AAA009384F4FF13048406E39C24FDBE
:101C940083AA0A00E3900AFC8320C1020324810280
:101CA40083244102032901028329C101832A4101BA
:101CB400032B0101832BC10013050A00032A8101B0
:101CC4001301010367800000130101FF2324810035
:101CD4009717000093870759171400001304C4587A
:101CE4003304F4402322910023261100935424400A
:101CF400638004021304C4FF3304F4008327040044
:101D04009384F4FF1304C4FFE7800700E39804FE00
:101D14008320C100032481008324410013010101B5
:101D24006780000083A741D6638EA70C83254504F2
:101D3400130101FE232A9100232E1100232C81007C
:101D44009304050063880504232821012326310117
:101D54001309000093090008B387250103A40700B1
:101D6400630E040093050400032404001385040097
:101D7400EFF00FD6E31804FE83A5440413094900C9
:101D8400E31C39FD13850400EFF08FD4032901010E
:101D94008329C10083A58403638605001385040099
:101DA400EFF00FD303A40404630C040093050400B0
:101DB4000324040013850400EFF08FD1E31804FE1C
:101DC40083A5C4046386050013850400EFF04FD097
:101DD40083A74403638E0700032481018320C10188
:101DE4001385040083244101130101026780070065
:101DF4008320C101032481018324410113010102D1
:101E04006780000067800000130101FF138705004D
:101E1400232481009305060013040500138606009D
:101E24001305070023A001D823261100EF00003D6D
:101E34009307F0FF630AF5008320C10003248100A7
:101E4400130101016780000023229100938401D8CB
:101E540083A70400638E07008320C1002320F400BD
:101E640003248100832441001301010167800000E1
:101E74008320C10003248100832441001301010154
:101E840067800000130101FF23248100130405006F
:101E94001385050023A001D823261100EF00801E1E
:101EA4009307F0FF630AF5008320C1000324810037
:101EB400130101016780000023229100938401D85B
:101EC40083A70400638E07008320C1002320F4004D
:101ED4000324810083244100130101016780000071
:101EE4008320C100032481008324410013010101E4
:101EF40067800000130101FF13870500232481007C
:101F04009305060013040500138606001305070055
:101F140023A001D823261100EF00001E9307F0FF31
:101F2400630AF5008320C100032481001301010129
:101F34006780000023229100938401D883A70400C2
:101F4400638E07008320C1002320F4000324810052
:101F54008324410013010101678000008320C10034
:101F640003248100832441001301010167800000E0
:101F74001387C1D783270700638C070403A747008F
:101F84001308F001634EE8061318270063060502E0
:101F9400338307012324C30883A88718130610007A
:101FA4003316E600B3E8C80023A417192324D3107A
:101FB400930620006304D5021307170023A2E70049
:101FC400B387070123A4B70013050000678000004E
:101FD400938741F02320F7006FF05FFA83A6C718B8
:101FE4001307170023A2E700B3E6C60023A6D718F9
:101FF400B387070123A4B70013050000678000001E
:102004001305F0FF67800000130101FF138705002B
:10201400232481009305060013040500138606009B
:102024001305070023A001D823261100EF00001197
:102034009307F0FF630AF5008320C10003248100A5
:10204400130101016780000023229100938401D8C9
:1020540083A70400638E07008320C1002320F400BB
:1020640003248100832441001301010167800000DF
:102074008320C10003248100832441001301010152
:1020840067800000130101FF23261100232481002F
:10209400930890037300000013040500634C0500CB
:1020A4008320C100130504000324810013010101EE
:1020B4006780000033048040EF00801823208500EF
:1020C4001304F0FF6FF0DFFD9308D00573000000E8
:1020D400634405006F000000130101FF2324810005
:1020E400130405002326110033048040EF0040153B
:1020F400232085006F000000130101FF2326110037
:10210400232481009308E0037300000013040500F6
:10211400634C05008320C1001305040003248100DF
:10212400130101016780000033048040EF00401177
:10213400232085001304F0FF6FF0DFFD130101FF7E
:1021440023261100232481009308F0037300000068
:1021540013040500634C05008320C100130504002B
:1021640003248100130101016780000033048040CF
:10217400EF00000D232085001304F0FF6FF0DFFD56
:10218400938641D803A70600130101FF23261100FB
:1021940093070500631007029308600D1305000000
:1021A400730000001306F0FF13070500630AC5025D
:1021B40023A0A6003385E7009308600D7300000098
:1021C40003A70600B387E700631CF5008320C10062
:1021D40023A0A60013050700130101016780000076
:1021E400EF0000068320C1009307C0002320F50000
:1021F4001305F0FF1301010167800000130101FFC3
:102204002326110023248100930800047300000096
:1022140013040500634C05008320C100130504006A
:10222400032481001301010167800000330480400E
:10223400EF000001232085001304F0FF6FF0DFFDA1
:0822440003A541D667800000EC
:0C224C0048656C6C6F20776F726C64004A
:042258000000000082
:08325C00B4000100C8010100EB
:0432640080010100E4
:1032680000000000030000000C380100000000000E
:103278000000000074320100743201007C32010049
:103288007C32010084320100843201008C3201005A
:103298008C32010094320100943201009C3201000A
:1032A8009C320100A4320100A4320100AC320100BA
:1032B800AC320100B4320100B4320100BC3201006A
:1032C800BC320100C4320100C4320100CC3201001A
:1032D800CC320100D4320100D4320100DC320100CA
:1032E800DC320100E4320100E4320100EC3201007A
:1032F800EC320100F4320100F4320100FC3201002A
:10330800FC32010004330100043301000C330100D6
:103318000C33010014330100143301001C33010085
:103328001C33010024330100243301002C33010035
:103338002C33010034330100343301003C330100E5
:103348003C33010044330100443301004C33010095
:103358004C33010054330100543301005C33010045
:103368005C33010064330100643301006C330100F5
:103378006C33010074330100743301007C330100A5
:103388007C33010084330100843301008C33010055
:103398008C33010094330100943301009C33010005
:1033A8009C330100A4330100A4330100AC330100B5
:1033B800AC330100B4330100B4330100BC33010065
:1033C800BC330100C4330100C4330100CC33010015
:1033D800CC330100D4330100D4330100DC330100C5
:1033E800DC330100E4330100E4330100EC33010075
:1033F800EC330100F4330100F4330100FC33010025
:10340800FC33010004340100043401000C340100D1
:103418000C34010014340100143401001C34010080
:103428001C34010024340100243401002C34010030
:103438002C34010034340100343401003C340100E0
:103448003C34010044340100443401004C34010090
:103458004C34010054340100543401005C34010040
:103468005C34010064340100643401006C340100F0
:103478006C34010074340100743401007C340100A0
:103488007C34010084340100843401008C34010050
:103498008C34010094340100943401009C34010000
:1034A8009C340100A4340100A4340100AC340100B0
:1034B800AC340100B4340100B4340100BC34010060
:1034C800BC340100C4340100C4340100CC34010010
:1034D800CC340100D4340100D4340100DC340100C0
:1034E800DC340100E4340100E4340100EC34010070
:1034F800EC340100F4340100F4340100FC34010020
:10350800FC34010004350100043501000C350100CC
:103518000C35010014350100143501001C3501007B
:103528001C35010024350100243501002C3501002B
:103538002C35010034350100343501003C350100DB
:103548003C35010044350100443501004C3501008B
:103558004C35010054350100543501005C3501003B
:103568005C35010064350100643501006C350100EB
:103578006C35010074350100743501007C3501009B
:103588007C35010084350100843501008C3501004B
:103598008C35010094350100943501009C350100FB
:1035A8009C350100A4350100A4350100AC350100AB
:1035B800AC350100B4350100B4350100BC3501005B
:1035C800BC350100C4350100C4350100CC3501000B
:1035D800CC350100D4350100D4350100DC350100BB
:1035E800DC350100E4350100E4350100EC3501006B
:1035F800EC350100F4350100F4350100FC3501001B
:10360800FC35010004360100043601000C360100C7
:103618000C36010014360100143601001C36010076
:103628001C36010024360100243601002C36010026
:103638002C36010034360100343601003C360100D6
:103648003C36010044360100443601004C36010086
:103658004C36010054360100543601005C36010036
:103668005C36010064360100643601006C360100E6
:103678006C36010000000000000000000C3801005A
:1036880074380100DC380100000000000000000070
:103698000000000000000000000000000000000022
:1036A8000000000000000000000000000000000012
:1036B8000000000000000000000000000000000002
:1036C80000000000000000000000000000000000F2
:1036D80000000000000000000000000000000000E2
:1036E80000000000000000000000000000000000D2
:1036F80000000000000000000000000000000000C2
:1037080000000000000000000000000000000000B1
:1037180001000000000000000E33CDAB34126DE64E
:10372800ECDE05000B0000000000000000000000B7
:103738000000000000000000000000000000000081
:103748000000000000000000000000000000000071
:103758000000000000000000000000000000000061
:103768000000000000000000000000000000000051
:103778000000000000000000000000000000000041
:103788000000000000000000000000000000000031
:103798000000000000000000000000000000000021
:1037A8000000000000000000000000000000000011
:0837B800000000000000000009
:1037C00000000000FFFFFFFF000002008036010044
:04000003100000CC1D
:00000001FF