:020000021000EC
:1000B4009307000099C7171500001305A5356F00B5
:1000C400F07E8280972100009381817413050000E3
:1000D40019C173107501138581D613864109098EE0
:1000E40081455D2A17150000130585FC19C51715F0
:1000F400000013052532EF00707B8D2402454C006F
:100104001316250011062E9695221DAC938781D5D2
:10011400138781D56308F7009307000081C713850F
:1001240081D582878280938781D5938581D59D8D62
:1001340093D72540FD81BE95858599C59307000019
:1001440081C7138581D582878280411122C483C7E8
:1001540081D806C699EF5D3F9307000081CB4565C2
:100164001305C57697000000E70000008547238447
:10017400F1D8B2402244410182809307000099CF14
:10018400456541119385C1D81305C57606C6970008
:100194000000E7000000B240410171B769B74111A6
:1001A40006C622C40008B7D70040A1079843B7D7B2
:1001B4000040A1071367170098C3B7D70040C107D1
:1001C4009843B7D70040C1071367170098C30100CD
:1001D400B240224441018280011106CE22CC00109B
:1001E400AA87A307F4FEB7D700400347F4FE98C3D9
:1001F4000100F240624405618280411106C622C4B6
:100204000008B7D70040D1079C43858BB9CBB7D73B
:100214000040D1079843B7D70040D107799B98C3D2
:1002240083A781D6456713070776BA9783C7070064
:1002340085C383A781D69386170023A4D1D64567A7
:1002440013070776BA9783C707003E85713711A84D
:10025400B7D70040C1079843B7D70040C107799B7F
:1002640098C30100B240224441018280411106C674
:1002740022C400082D3783A781D69386170023A4B0
:10028400D1D6456713070776BA9783C707003E851B
:10029400A13773005010F5BF3D432A876373C3022F
:1002A4009377F700BDEFADE5937606FF3D8ABA96E6
:1002B4000CC34CC30CC74CC74107E36BD7FE11E218
:1002C4008280B306C3408A06970200009696678030
:1002D400A6002307B700A306B7002306B700A305AB
:1002E400B7002305B700A304B7002304B700A30392
:1002F400B7002303B700A302B7002302B700A3018A
:10030400B7002301B700A300B7002300B700828021
:1003140093F5F50F93968500D58D93960501D58DAC
:1003240061B7939627009702000096968682E7802D
:1003340086FA9680C1171D8F3E96E374C3F8A5B75D
:100344004111814522C406C62A84EF00F04483A7E4
:10035400C1D691C382972285EF102031411122C466
:100364004AC0972700009387A7C9172400001304E5
:1003740024C906C626C233898740638B8700135974
:10038400294081441C40850411048297E3EC24FF36
:1003940097270000938747C717240000130444C617
:1003A40033898740135929406389870081441C405D
:1003B400850411048297E3EC24FFB2402244924462
:1003C40002494101828001458280172600001306FC
:1003D40026C4970500009385A527138581C16F0066
:1003E400107C4C41411122C406C6938741DA2A8409
:1003F4006383F500A12C0C449387C1E06384F5006A
:100404002285A9244C44938741E76387F50022851C
:100414002244B24041011DACB240224441018280D9
:1004240001458280011106CE22CC26CA138441DA0A
:100434004AC84EC652C417070000130747F991472C
:1004440021468145138501E023A6E1D65CC423201F
:100454000400232204002324040023220406232866
:100464000400232A0400232C04003D35C167171A15
:100474000000130A8AC4971900009389A9C71719A1
:100484000000130929CC97140000938464CFA507B6
:1004940021468145138581E67CD823204403232209
:1004A40034032324240344D440CC232404062326E5
:1004B4000406232804062326040C232C0406232ED6
:1004C400040623200408C93BB7070200C9071387A1
:1004D400C1E021468145138501ED232444092326E7
:1004E400340923282409232A9408232EF40C2328CE
:1004F400040C232A040C232C040C232A0412232086
:10050400040E2322040E2324040E2322E408693358
:10051400938741E72328440F232A340F232C240FE5
:10052400232E940EF2402326F40E6244D244424910
:10053400B249224A0561828083A7C1D601114EC601
:1005440006CE22CC26CA4AC8AA89CDC717290000DC
:10055400130909ACFD548327490003248900FD17BE
:1005640063D70700B9A813048406638C97040317A0
:10057400C400FD176DFBC1778507232204062320E1
:100584000400232404002322040023280400232A33
:100594000400232C04005CC4214681451305C405D2
:1005A400E53923280402232A0402232204042324F1
:1005B4000404F24022856244D2444249B2490561AE
:1005C40082800324090019C0228971B79305C01AD7
:1005D4004E85392A2A840DC1914731052320040010
:1005E4005CC008C41306001A81457D3123208900AC
:1005F400228995B7053D99BF23200900B14723A05F
:10060400F90045BF5C5991C3828083A7C1D61707FF
:100614000000130747DD58D9E5FB29B582808280A5
:10062400172600001306C69E970500009385E5D99A
:1006340001456F00D056172600001306669D9705E6
:100644000000938525DE01456F007055411106C6F3
:100654004AC089CD22C426C22E84AA8419C15C59F9
:10066400D1C38317C40089EB22449244B2400149A8
:100674004A85024941018280A2852685EF007030B7
:100684005C542A8991C74C4C2685829763420504A1
:100694008357C40093F70708B1E30C5889C993073B
:1006A40004046384F5002685D12D232804026C40BC
:1006B40089C52685E125232204048D3723160400E9
:1006C400B93FB240224492444A85024941018280A2
:1006D4008357C4007D5993F70708E1D30C48268556
:1006E400712D65BF0537B5BFAA8503A541D6B9BF2E
:1006F40079714AD006D622D426D24ECE9387B5003D
:1007040059472A896368F704C14463E8B416EF00C3
:10071400D015E14789459389C180CE97C04313879B
:1007240087FF6308E4305C4054441044F19BA29773
:10073400D84354C690C6136717004A85D8C3EF0040
:10074400F012B25013058400225492540259F24913
:100754004561828093F487FF63C1071263EFB4108D
:10076400EF00B0109307701F63F4973893D7940089
:100774006380071211476363F73093D7640093854E
:10078400970313888703139635009389C1804E9687
:1007940040426116630186023D4539A054446357C3
:1007A4000726630AD60036845C40F19B3387974062
:1007B400E356E5FEC28503A4090193884181630DD4
:1007C400141F5C40BD46F19B3387974063C7E632F4
:1007D40023AA190123A81901635207301307F01F34
:1007E40003A54900636CF72413F787FF21074E978D
:1007F400144313D657008547B397C7005D8D9307FD
:1008040087FF14C45CC423A2A90000C3C0C693D745
:10081400254005463316F6006363C508B377A60082
:1008240081EF0606F199B377A600910591E70606D4
:10083400B377A6009105E5DF3D48139335004E9349
:100844001A855C452E8E630BF524D8433E84DC4721
:10085400719BB3069740634AD824E3C606FE2297E9
:10086400544310444A8593E6160054C35CC690C7AB
:10087400EF00C07F1305840029A0B1472320F900AD
:100884000145B250225492540259F2494561828082
:1008940013060020930500041308F003FDB503A418
:1008A40089005AC85C4013FBC7FF63679B0033078A
:1008B4009B40BD4763C7E71266C2938CC1D556CA35
:1008C40003A70C0083AA81D752CC5EC6FD57330A16
:1008D4006401A69A6300F72C8567BD07BE9AFD776D
:1008E400B3FAFA00D6854A85EF006078FD57AA8BE3
:1008F4006308F53262C46364450D138CC1ED83252E
:100904000C00D6952320BC002E87630FAA3083A643
:100914000C00FD576387F632B3874B41BA97232007
:10092400FC0093FC7B0063810C28B38B9B418565A1
:10093400A10BA105DE9AB3859541B3855541D20536
:1009440013DA4501D2854A851D27FD576307F53221
:1009540033057541B30A450103270C0023A479012B
:1009640093E71A00B305EA0023A2FB002320BC008E
:1009740063053403BD4663F86625584093074BFF6F
:10098400E19B058B5D8F58C015463307F40050C3B7
:1009940010C763E8F61E83A74B00138741D714439F
:1009A40063F3B6000CC3138701D7144363F3B60093
:1009B4000CC3224C5E8411A803A5490089BD6309B8
:1009C400342503A48900224C5C40F19B3387974073
:1009D40063EF971EBD4763DCE71E624AD24AB24BFF
:1009E400924C93E714005CC0A29423A4990013676B
:1009F40017004A85D8C09D2DB25013058400225497
:100A0400424B92540259F249456182801044A297A4
:100A1400D84354C690C6136717004A85D8C3B9256E
:100A2400B25013058400225492540259F24945618C
:100A34008280C0478905E38087D8F5B113D7970032
:100A4400914663F2E60ED14663EBE6181306C7053A
:100A54000E069306B7054E96184261166316E60015
:100A640025AA18476306E6005443F19AE3EBD7FE40
:100A7400504750C418C400C640C751BB5147637C9B
:100A8400F70A130740056368F71693D7C4009385E4
:100A9400F7061388E70613963500C5B9050E937754
:100AA4003E002105CDC75C4579BB104493E5140095
:100AB4004CC05CC690C7A29423AA990023A89900AD
:100AC40093E71600229723A6140123A41401DCC083
:100AD4004A8514C3612B1305840065B3A297D843D8
:100AE4004A8513671700D8C351231305840051BBEB
:100AF40093D534009387840039B993E6140054C025
:100B0400A29423AA990023A8990093661700A29798
:100B140023A6140123A41401D4C04A8598C3B9237D
:100B240013058400B9BB13D76700130697030E0699
:100B3400930687030DB79385C7051388B7051396E6
:100B44003500A1B183278300FD156396671693F7DB
:100B540035006113E5FB03A749009347F6FFF98FBE
:100B640023A2F9000606E3ECC7D2E30A06D23377E0
:100B7400F60011E706063377F600110E65DFF285FD
:100B84006DB9930584004A85D52A83250C0083AB6F
:100B9400890011B5C10AB9B389868547B397D700CF
:100BA4005D8D23A2A900F1B5B3855B01B305B04007
:100BB400D20513DA4501D2854A855529FD57E31933
:100BC400F5D8014A51BB224C854723A2FB004A8534
:100BD4007129624AD24A424BB24B924C55B19306A8
:100BE400400563E3E60613D7C7001306F7060E06AF
:100BF4009306E7068DB5130740156363F70693D78D
:100C0400F400938587071388770713963500B5BEDC
:100C1400138CC1ED03270C0056972320EC00C5B9B3
:100C240003A489005C4055B393174501E39107CEB3
:100C340083AB8900B3075B0193E7170023A2FB0092
:100C4400A9BB23A07C01F1B99306401563EDE6022C
:100C540013D7F700130687070E0693067707E5BB3D
:100C640013074055636DF70293D724019385D70783
:100C74001388C7071396350009BEE11CE69AB38AA8
:100C84007A41014AD1B99306405563E1E60213D78C
:100C940027011306D7070E069306C7076DBB130675
:100CA400803F9305F0071308E007C5B41306803F9F
:100CB4009306E0074DB383A749006DB5011122CC1B
:100CC40026CA4AC84EC652C4AE8906CE2A89171A05
:100CD4000000130AAA34512E83278A0005643D14A8
:100CE400C4438567F19826943304344131807D14DC
:100CF4003204634AF40081454A85952E83278A008D
:100D0400A697630DF5004A859526F2406244D244C5
:100D14004249B249224A014505618280B3058040B7
:100D24004A85B126FD576308F5021387C1ED832672
:100D34008A001C43818C93E414004A85818FC4C2C9
:100D44001CC32D26F2406244D2444249B249224A8D
:100D540005450561828081454A85112E03278A0055
:100D6400BD46B307E540E3D0F6FA83A6C1D593E7C1
:100D740017005CC3158D23AEA1EC71B7E9CD411109
:100D840022C426C22E84AA8406C6C5248325C4FF91
:100D9400130784FF171800001308482893F7E5FF8A
:100DA4003306F70054420325880093F81500F19A9E
:100DB400630DC51054C23305D600484105896399B3
:100DC4000806032384FF971800009388A825330797
:100DD40067400C479A97638E150D0323C70023A61B
:100DE40065002324B300630B051093E6170054C376
:100DF4001CC29306F01F63EAF60693F687FFA1066A
:100E040083254800C296904213D557008547B3976F
:100E1400A700CD8F938586FF10C74CC72322F80007
:100E240098C258C62244B2402685924441013DAC42
:100E340005E5B697971800009388C81E144613E575
:100E44001700B305F7006387160F5046D0C614C6C3
:100E540048C39CC179BF828093E51500232EB4FE5C
:100E64001CC29306F01FE3FAF6F893D697001146D6
:100E74006368D60893D66700938596038E05138618
:100E84008603C2959441E1156396D5007DA89446E6
:100E94006386D500D042719AE3EBC7FECC464CC7BB
:100EA40014C72244B24098C526859244D8C641014D
:100EB40075AA35E54C461046BE9693E716004CC617
:100EC40090C55CC3369714C3B1BFBE96639A08003D
:100ED400832584FF0D8F5C471047AE965CC690C790
:100EE40013E6160083A701D650C32324E800E3EBDE
:100EF400F6F283A581D72685D1332DB7B6973DBFAA
:100F040051466373D60213064005636AD60493D62A
:100F1400C7009385F6068E051386E6069DB793E60D
:100F2400170054C31CC2FDBD9385C6058E051386E8
:100F3400B60581BF232AE8002328E80023261701E9
:100F44002324170148C39CC1F1BD03254800098629
:100F54008547B397C700C98F2322F80089B71306C2
:100F64004015636AD60093D6F700938586078E05ED
:100F74001386760739B713064055636AD60093D6AD
:100F840027019385D6078E051386C607DDBD930515
:100F9400803F1306E007F5B5797152CC138AC1D7A7
:100FA4004AD003290A0006D6630609044ECE56CA5F
:100FB4005AC85EC622D426D262C42A8BAE8BFD598F
:100FC400854A832449001384F4FF634E04008A0491
:100FD400CA9463860B0283A74410638277037D144B
:100FE400F114E31A34FF22549254F249D24A424B88
:100FF400B24B224CB2500259624A45618280832727
:101004004900D440FD17638C870423A2040095C2D1
:101014008327891833978A00032C4900F98F99EFA5
:1010240082960327490083270A0063178703639581
:1010340027037D14F114E31E34F975B78327C91807
:1010440083A544087D8F19EF5A85829603274900AA
:1010540083270A00E30D87FDD9D73E899DB7232254
:10106400890075B72E8582966DBF8280828041117A
:1010740022C42A842E8523A001D806C68D25FD57B7
:101084006306F500B24022444101828026C2938463
:1010940001D89C4099C7B2401CC0224492444101EB
:1010A4008280B2402244924441018280AA858146D2
:1010B40001460145C5A1411122C42E848395E50052
:1010C40006C62D2B634905003C48B240AA973CC88C
:1010D4002244410182808357C4007D777D17F98FB4
:1010E400B2402316F40022444101828001458280EB
:1010F4008397C500011122CC26CA4AC84EC606CE23
:1011040013F707102E843289B689AA8415E37D77F4
:101114007D17F98F8315E4002316F4006244F2402E
:10112400CE864A86B24942492685D244056145A6FF
:101134008395E5008946014621298317C400C1BF70
:10114400411122C42E848395E50006C611217D57E2
:101154008317C400630BE5000567D98FB24028C824
:101164002316F4002244410182807D777D17F98F94
:10117400B2402316F4002244410182808395E500A5
:1011840049AE0397C500011122CC4EC606CE937713
:1011940087002E84AA89F9E3856793870780D44161
:1011A400D98F2396F5006358D01003288402630175
:1011B400080A26CA9316370183A4090023A009004C
:1011C40063C206104C4C014685464E850298FD5775
:1011D4002A866300F5128317C40003288402918BC6
:1011E40099C758401C58198E99C35C5C1D8E4C4C91
:1011F40081464E8502987D578317C4006316E50C1B
:1012040083A6090075476362D71037074020050796
:101214003357D700058B75CB10487D771307F77FBD
:101224007D8F2316E4002322040010C01397370196
:1012340063530700C5CA0C5823A09900CDC993076E
:1012440004046384F5004E85153ED2442328040229
:10125400F2406244B2490145056182804AC803A94B
:101264000501630F090426CA84410D8B23A02501BF
:10127400B3842441814711E3DC491CC463469000D4
:101284003DA82A99635D90025C504C4CA6864A8620
:101294004E858297898CE346A0FE8317C400424999
:1012A40093E70704F2402316F4006244D244B2499F
:1012B4007D5505618280D45DE349D0EE51BFD244AF
:1012C400424979B7304821BF14487D771307F77F27
:1012D4007D8F2316E4002322040014C013973701E2
:1012E400E35B07F40C5828C823A09900A9F9D24459
:1012F40085B783A70900E38007EE7547638AE70093
:1013040059476387E7008317C40093E7070459BF6D
:1013140023A09900D2442DBF011122CC06CE2A84E9
:1013240019C15C5991CF8397C50091E7F24062449B
:1013340001450561828022856244F240056191B5D0
:101344002EC6EFF02FACB245F9BF05CDAA8503A593
:1013540041D619C15C5999C78397C50099E30145E2
:10136400828005B501112EC62AC406CEEFF08FA9DE
:10137400B24522458397C50085E3F24001450561E6
:101384008280171600001306A6C8970500009385EF
:10139400E5F8138581C121A0F2400561DDB37971BF
:1013A4004AD04ECE52CC56CA5AC85EC606D622D4AD
:1013B40026D22A8BAE8BB28A014A85497D5983A4F1
:1013C4004A0003A48A00FD1463C404028357C400C2
:1013D40063FBF9008317E400A2855A85638527011E
:1013E400829B336AAA00FD1413048406E39024FF4D
:1013F40083AA0A00E3950AFCB2502254925402597B
:10140400F249D24A424BB24B5285624A45618280CC
:10141400411122C497170000938707BF17140000D7
:101424001304C4BE1D8C26C206C69354244081C82E
:1014340071143E941C40FD1471148297E5FCB24073
:10144400224492444101828083A741D66380A70845
:101454006C41011126CA06CE22CCAA848DC94AC881
:101464004EC6014993090008B3872501804301C88A
:10147400A28500402685EFF07F907DF8EC401109AD
:10148400E31439FF2685EFF07F8F4249B2498C5C23
:1014940081C52685EFF09F8EA04019C4A285004027
:1014A4002685EFF0BF8D7DF8EC4481C52685EFF0ED
:1014B400FF8CDC5899C76244F2402685D24405610A
:1014C4008287F2406244D244056182808280411165
:1014D4002E8722C4B2852A8436863A8523A001D871
:1014E40006C6A924FD576306F500B2402244410113
:1014F400828026C2938401D89C4099C7B2401CC004
:101504002244924441018280B240224492444101E7
:101514008280411122C42A842E8523A001D806C6C4
:101524000522FD576306F500B24022444101828042
:1015340026C2938401D89C4099C7B2401CC022445F
:10154400924441018280B24022449244410182800B
:1015540041112E8722C4B2852A8436863A8523A077
:1015640001D806C61D22FD576306F500B240224489
:101574004101828026C2938401D89C4099C7B2401D
:101584001CC02244924441018280B24022449244CD
:10159400410182801387C1D71C43A1C3D8437D482E
:1015A400634CE804131827001DC133830701232467
:1015B400C30883A8871805463316E600B3E8C800B5
:1015C40023A417192324D3108946630CD5000507D7
:1015D400D8C3C2978CC701458280938741F01CC34E
:1015E40075BF83A6C7180507D8C3D18E23A6D718FD
:1015F400C2978CC7014582807D55828041112E8718
:1016040022C4B2852A8436863A8523A001D806C628
:101614005520FD576306F500B24022444101828003
:1016240026C2938401D89C4099C7B2401CC022446E
:10163400924441018280B24022449244410182801A
:10164400411106C622C493089003730000002A8443
:1016540063470500B240228522444101828033045D
:101664008040D52800C17D54F5B79308D005730098
:1016740000006343050001A0411122C42A8406C668
:1016840033048040C92800C101A0411106C622C408
:101694009308E003730000002A8463470500B24006
:1016A4002285224441018280330480406D2000C1A0
:1016B4007D54F5B7411106C622C49308F0037300A4
:1016C40000002A8463470500B24022852244410178
:1016D400828033048040412000C17D54F5B7938655
:1016E40041D89842411106C6AA8719EB9308600DA8
:1016F4000145730000007D562A876302C50288C233
:101704003385E7009308600D730000009842BA9790
:101714006317F500B24088C23A85410182802528CA
:10172400B240B1471CC17D5541018280411106C6BA
:1017340022C493080004730000002A846347050050
:10174400B24022852244410182803304804021201A
:0C17540000C17D54F5B703A541D682808A
:0C17600048656C6C6F20776F726C640041
:04176C000000000079
:08200000B40001007E010100A3
:042008004E01010084
:102010000000000003000000B425010000000000E3
:10202000000000001C2001001C20010024200100F1
:10203000242001002C2001002C200100342001006C
:10204000342001003C2001003C200100442001001C
:10205000442001004C2001004C20010054200100CC
:10206000542001005C2001005C200100642001007C
:10207000642001006C2001006C200100742001002C
:10208000742001007C2001007C20010084200100DC
:10209000842001008C2001008C200100942001008C
:1020A000942001009C2001009C200100A42001003C
:1020B000A4200100AC200100AC200100B4200100EC
:1020C000B4200100BC200100BC200100C42001009C
:1020D000C4200100CC200100CC200100D42001004C
:1020E000D4200100DC200100DC200100E4200100FC
:1020F000E4200100EC200100EC200100F4200100AC
:10210000F4200100FC200100FC200100042101005A
:10211000042101000C2101000C2101001421010007
:10212000142101001C2101001C21010024210100B7
:10213000242101002C2101002C2101003421010067
:10214000342101003C2101003C2101004421010017
:10215000442101004C2101004C21010054210100C7
:10216000542101005C2101005C2101006421010077
:10217000642101006C2101006C2101007421010027
:10218000742101007C2101007C21010084210100D7
:10219000842101008C2101008C2101009421010087
:1021A000942101009C2101009C210100A421010037
:1021B000A4210100AC210100AC210100B4210100E7
:1021C000B4210100BC210100BC210100C421010097
:1021D000C4210100CC210100CC210100D421010047
:1021E000D4210100DC210100DC210100E4210100F7
:1021F000E4210100EC210100EC210100F4210100A7
:10220000F4210100FC210100FC2101000422010055
:10221000042201000C2201000C2201001422010002
:10222000142201001C2201001C22010024220100B2
:10223000242201002C2201002C2201003422010062
:10224000342201003C2201003C2201004422010012
:10225000442201004C2201004C22010054220100C2
:10226000542201005C2201005C2201006422010072
:10227000642201006C2201006C2201007422010022
:10228000742201007C2201007C22010084220100D2
:10229000842201008C2201008C2201009422010082
:1022A000942201009C2201009C220100A422010032
:1022B000A4220100AC220100AC220100B4220100E2
:1022C000B4220100BC220100BC220100C422010092
:1022D000C4220100CC220100CC220100D422010042
:1022E000D4220100DC220100DC220100E4220100F2
:1022F000E4220100EC220100EC220100F4220100A2
:10230000F4220100FC220100FC2201000423010050
:10231000042301000C2301000C23010014230100FD
:10232000142301001C2301001C23010024230100AD
:10233000242301002C2301002C230100342301005D
:10234000342301003C2301003C230100442301000D
:10235000442301004C2301004C23010054230100BD
:10236000542301005C2301005C230100642301006D
:10237000642301006C2301006C230100742301001D
:10238000742301007C2301007C23010084230100CD
:10239000842301008C2301008C230100942301007D
:1023A000942301009C2301009C230100A42301002D
:1023B000A4230100AC230100AC230100B4230100DD
:1023C000B4230100BC230100BC230100C42301008D
:1023D000C4230100CC230100CC230100D42301003D
:1023E000D4230100DC230100DC230100E4230100ED
:1023F000E4230100EC230100EC230100F42301009D
:10240000F4230100FC230100FC230100042401004B
:10241000042401000C2401000C24010014240100F8
:10242000142401000000000000000000B425010099
:102430001C260100842601000000000000000000AE
:10244000000000000000000000000000000000008C
:10245000000000000000000000000000000000007C
:10246000000000000000000000000000000000006C
:10247000000000000000000000000000000000005C
:10248000000000000000000000000000000000004C
:10249000000000000000000000000000000000003C
:1024A000000000000000000000000000000000002C
:1024B000000000000000000000000000000000001C
:1024C00001000000000000000E33CDAB34126DE6B9
:1024D000ECDE05000B000000000000000000000022
:1024E00000000000000000000000000000000000EC
:1024F00000000000000000000000000000000000DC
:1025000000000000000000000000000000000000CB
:1025100000000000000000000000000000000000BB
:1025200000000000000000000000000000000000AB
:10253000000000000000000000000000000000009B
:10254000000000000000000000000000000000008B
:10255000000000000000000000000000000000007B
:08256000000000000000000073
:1025680000000000FFFFFFFF000002002824010018
:04000003100000C821
:00000001FF
